{
  "contractName": "Migrations",
  "abi": [
    {
      "inputs": [],
      "name": "last_completed_migration",
      "outputs": [
        {
          "internalType": "uint256",
          "name": "",
          "type": "uint256"
        }
      ],
      "stateMutability": "view",
      "type": "function"
    },
    {
      "inputs": [],
      "name": "owner",
      "outputs": [
        {
          "internalType": "address",
          "name": "",
          "type": "address"
        }
      ],
      "stateMutability": "view",
      "type": "function"
    },
    {
      "inputs": [
        {
          "internalType": "uint256",
          "name": "completed",
          "type": "uint256"
        }
      ],
      "name": "setCompleted",
      "outputs": [],
      "stateMutability": "nonpayable",
      "type": "function"
    },
    {
      "inputs": [
        {
          "internalType": "address",
          "name": "new_address",
          "type": "address"
        }
      ],
      "name": "upgrade",
      "outputs": [],
      "stateMutability": "nonpayable",
      "type": "function"
    }
  ],
  "bytecode": "0x608060405234801561000f575f80fd5b506101c28061001d5f395ff3fe608060405234801561000f575f80fd5b506004361061004a575f3560e01c80630900f0101461004e578063445df0ac146100635780638da5cb5b1461007f578063fdacd576146100a9575b5f80fd5b61006161005c366004610148565b6100bc565b005b61006c60015481565b6040519081526020015b60405180910390f35b5f54610091906001600160a01b031681565b6040516001600160a01b039091168152602001610076565b6100616100b7366004610175565b610132565b5f546001600160a01b0316330361012f57600154604051637ed66abb60e11b815282916001600160a01b0383169163fdacd576916101009160040190815260200190565b5f604051808303815f87803b158015610117575f80fd5b505af1158015610129573d5f803e3d5ffd5b50505050505b50565b5f546001600160a01b0316330361012f57600155565b5f60208284031215610158575f80fd5b81356001600160a01b038116811461016e575f80fd5b9392505050565b5f60208284031215610185575f80fd5b503591905056fea2646970667358221220a5f0a4122535fff681487282996e9b9123f92a28909611013ef1dafb8472494364736f6c63430008170033",
  "immutableReferences": {},
  "source": "// SPDX-License-Identifier: MIT\npragma solidity >=0.4.22 <0.9.0;\n\ncontract Migrations {\n  address public owner;\n  uint256 public last_completed_migration;\n\n  modifier restricted() {\n    if (msg.sender == owner) _;\n  }\n\n  // constructor() public {\n  //   owner = msg.sender;\n  // }\n\n  function setCompleted(uint completed) public restricted {\n    last_completed_migration = completed;\n  }\n\n  function upgrade(address new_address) public restricted {\n    Migrations upgraded = Migrations(new_address);\n    upgraded.setCompleted(last_completed_migration);\n  }\n}\n",
  "sourcePath": "C:\\Users\\chusa\\23L-BC_PROJECTDAPP\\contracts\\Migrations.sol",
  "compiler": {
    "name": "solc",
    "version": "0.8.23+commit.f704f362.Emscripten.clang"
  },
  "schemaVersion": "3.4.16",
  "updatedAt": "2023-11-23T10:24:02.494Z",
  "devdoc": {
    "kind": "dev",
    "methods": {},
    "version": 1
  },
  "userdoc": {
    "kind": "user",
    "methods": {},
    "version": 1
  }
}